{
  "contractName": "CatAttack",
  "abi": [
    {
      "anonymous": false,
      "inputs": [
        {
          "indexed": false,
          "internalType": "uint256",
          "name": "catId",
          "type": "uint256"
        },
        {
          "indexed": false,
          "internalType": "string",
          "name": "name",
          "type": "string"
        },
        {
          "indexed": false,
          "internalType": "uint256",
          "name": "dna",
          "type": "uint256"
        }
      ],
      "name": "NewCat",
      "type": "event"
    },
    {
      "anonymous": false,
      "inputs": [
        {
          "indexed": true,
          "internalType": "address",
          "name": "previousOwner",
          "type": "address"
        },
        {
          "indexed": true,
          "internalType": "address",
          "name": "newOwner",
          "type": "address"
        }
      ],
      "name": "OwnershipTransferred",
      "type": "event"
    },
    {
      "inputs": [
        {
          "internalType": "uint256",
          "name": "",
          "type": "uint256"
        }
      ],
      "name": "catToOwner",
      "outputs": [
        {
          "internalType": "address",
          "name": "",
          "type": "address"
        }
      ],
      "stateMutability": "view",
      "type": "function"
    },
    {
      "inputs": [
        {
          "internalType": "uint256",
          "name": "",
          "type": "uint256"
        }
      ],
      "name": "cats",
      "outputs": [
        {
          "internalType": "string",
          "name": "name",
          "type": "string"
        },
        {
          "internalType": "uint256",
          "name": "dna",
          "type": "uint256"
        },
        {
          "internalType": "uint32",
          "name": "level",
          "type": "uint32"
        },
        {
          "internalType": "uint32",
          "name": "readyTime",
          "type": "uint32"
        },
        {
          "internalType": "uint16",
          "name": "winCount",
          "type": "uint16"
        },
        {
          "internalType": "uint16",
          "name": "lossCount",
          "type": "uint16"
        }
      ],
      "stateMutability": "view",
      "type": "function"
    },
    {
      "inputs": [
        {
          "internalType": "uint256",
          "name": "_catId",
          "type": "uint256"
        },
        {
          "internalType": "uint256",
          "name": "_newDna",
          "type": "uint256"
        }
      ],
      "name": "changeDna",
      "outputs": [],
      "stateMutability": "nonpayable",
      "type": "function"
    },
    {
      "inputs": [
        {
          "internalType": "uint256",
          "name": "_catId",
          "type": "uint256"
        },
        {
          "internalType": "string",
          "name": "_newName",
          "type": "string"
        }
      ],
      "name": "changeName",
      "outputs": [],
      "stateMutability": "nonpayable",
      "type": "function"
    },
    {
      "inputs": [
        {
          "internalType": "string",
          "name": "_name",
          "type": "string"
        }
      ],
      "name": "createRandomCat",
      "outputs": [],
      "stateMutability": "nonpayable",
      "type": "function"
    },
    {
      "inputs": [
        {
          "internalType": "address",
          "name": "_owner",
          "type": "address"
        }
      ],
      "name": "getCatsByOwner",
      "outputs": [
        {
          "internalType": "uint256[]",
          "name": "",
          "type": "uint256[]"
        }
      ],
      "stateMutability": "view",
      "type": "function"
    },
    {
      "inputs": [
        {
          "internalType": "uint256",
          "name": "_catId",
          "type": "uint256"
        }
      ],
      "name": "levelUp",
      "outputs": [],
      "stateMutability": "payable",
      "type": "function"
    },
    {
      "inputs": [],
      "name": "owner",
      "outputs": [
        {
          "internalType": "address",
          "name": "",
          "type": "address"
        }
      ],
      "stateMutability": "view",
      "type": "function"
    },
    {
      "inputs": [
        {
          "internalType": "uint256",
          "name": "_fee",
          "type": "uint256"
        }
      ],
      "name": "setLevelUpFee",
      "outputs": [],
      "stateMutability": "nonpayable",
      "type": "function"
    },
    {
      "inputs": [
        {
          "internalType": "address",
          "name": "newOwner",
          "type": "address"
        }
      ],
      "name": "transferOwnership",
      "outputs": [],
      "stateMutability": "nonpayable",
      "type": "function"
    },
    {
      "inputs": [],
      "name": "withdraw",
      "outputs": [],
      "stateMutability": "nonpayable",
      "type": "function"
    },
    {
      "inputs": [
        {
          "internalType": "uint256",
          "name": "_catId",
          "type": "uint256"
        },
        {
          "internalType": "uint256",
          "name": "_targetId",
          "type": "uint256"
        }
      ],
      "name": "attack",
      "outputs": [],
      "stateMutability": "nonpayable",
      "type": "function"
    }
  ],
  "bytecode": "0x6080604052601060018190556200001890600a620000aa565b6002556201518060035566038d7ea4c68000600755600060085560466009553480156200004457600080fd5b50600080546001600160a01b03191633179055620001b5565b80825b6001808611620000715750620000a1565b8187048211156200008657620000866200019f565b808616156200009457918102915b9490941c93800262000060565b94509492505050565b6000620000bb6000198484620000c2565b9392505050565b600082620000d357506001620000bb565b81620000e257506000620000bb565b8160018114620000fb576002811462000106576200013a565b6001915050620000bb565b60ff8411156200011a576200011a6200019f565b6001841b9150848211156200013357620001336200019f565b50620000bb565b5060208310610133831016604e8410600b841016171562000172575081810a838111156200016c576200016c6200019f565b620000bb565b6200018184848460016200005d565b8086048211156200019657620001966200019f565b02949350505050565b634e487b7160e01b600052601160045260246000fd5b6110c180620001c56000396000f3fe6080604052600436106100a75760003560e01c8063c1bab34211610064578063c1bab34214610161578063c39cbef11461018e578063c6df962d146101ae578063ccf670f8146101e0578063e1fa763814610200578063f2fde38b14610220576100a7565b80630ce90ec2146100ac5780633aab8dc8146100c15780633ccfd60b146100f75780635faf28801461010c578063600ff8eb1461012c5780638da5cb5b1461014c575b600080fd5b6100bf6100ba366004610d6d565b610240565b005b3480156100cd57600080fd5b506100e16100dc366004610d6d565b6102b5565b6040516100ee9190610e82565b60405180910390f35b34801561010357600080fd5b506100bf6102d0565b34801561011857600080fd5b506100bf610127366004610dfc565b610324565b34801561013857600080fd5b506100bf610147366004610ccc565b6103d1565b34801561015857600080fd5b506100e161041f565b34801561016d57600080fd5b5061018161017c366004610ca5565b61042e565b6040516100ee9190610e96565b34801561019a57600080fd5b506100bf6101a9366004610d85565b610522565b3480156101ba57600080fd5b506101ce6101c9366004610d6d565b6105d7565b6040516100ee96959493929190610eda565b3480156101ec57600080fd5b506100bf6101fb366004610d6d565b6106c1565b34801561020c57600080fd5b506100bf61021b366004610dfc565b6106dd565b34801561022c57600080fd5b506100bf61023b366004610ca5565b6108b6565b600754341461024e57600080fd5b6004818154811061026f57634e487b7160e01b600052603260045260246000fd5b600091825260208220600260039092020101805463ffffffff169161029383611025565b91906101000a81548163ffffffff021916908363ffffffff1602179055505050565b6005602052600090815260409020546001600160a01b031681565b6000546001600160a01b031633146102e757600080fd5b600080546040516001600160a01b03909116914780156108fc02929091818181858888f19350505050158015610321573d6000803e3d6000fd5b50565b601482816004828154811061034957634e487b7160e01b600052603260045260246000fd5b600091825260209091206002600390920201015463ffffffff16101561036e57600080fd5b60008481526005602052604090205484906001600160a01b0316331461039357600080fd5b83600486815481106103b557634e487b7160e01b600052603260045260246000fd5b9060005260206000209060030201600101819055505050505050565b33600090815260066020526040902054600a106103ed57600080fd5b60006103f88261093b565b905061040560648261103f565b61040f9082610f66565b905061041b828261097f565b5050565b6000546001600160a01b031681565b6001600160a01b0381166000908152600660205260408120546060919067ffffffffffffffff81111561047157634e487b7160e01b600052604160045260246000fd5b60405190808252806020026020018201604052801561049a578160200160208202803683370190505b5090506000805b600454811015610519576000818152600560205260409020546001600160a01b038681169116141561050757808383815181106104ee57634e487b7160e01b600052603260045260246000fd5b6020908102919091010152816105038161100a565b9250505b806105118161100a565b9150506104a1565b50909392505050565b600283816004828154811061054757634e487b7160e01b600052603260045260246000fd5b600091825260209091206002600390920201015463ffffffff16101561056c57600080fd5b60008581526005602052604090205485906001600160a01b0316331461059157600080fd5b8484600488815481106105b457634e487b7160e01b600052603260045260246000fd5b600091825260209091206105ce9360039092020191610b98565b50505050505050565b600481815481106105e757600080fd5b906000526020600020906003020160009150905080600001805461060a90610fad565b80601f016020809104026020016040519081016040528092919081815260200182805461063690610fad565b80156106835780601f1061065857610100808354040283529160200191610683565b820191906000526020600020905b81548152906001019060200180831161066657829003601f168201915b505050600184015460029094015492939263ffffffff8082169350640100000000820416915061ffff600160401b8204811691600160501b90041686565b6000546001600160a01b031633146106d857600080fd5b600755565b60008281526005602052604090205482906001600160a01b0316331461070257600080fd5b60006004848154811061072557634e487b7160e01b600052603260045260246000fd5b9060005260206000209060030201905060006004848154811061075857634e487b7160e01b600052603260045260246000fd5b9060005260206000209060030201905060006107746064610b15565b9050600954811161083057600283018054600160401b900461ffff1690600861079c83610fe8565b825461ffff9182166101009390930a92830291909202199091161790555060028301805463ffffffff169060006107d283611025565b825463ffffffff9182166101009390930a92830291909202199091161790555060028201805461ffff600160501b9091041690600a61081083610fe8565b91906101000a81548161ffff021916908361ffff160217905550506108ae565b600283018054600160501b900461ffff1690600a61084d83610fe8565b91906101000a81548161ffff021916908361ffff1602179055505081600201600881819054906101000a900461ffff168092919061088a90610fe8565b91906101000a81548161ffff021916908361ffff160217905550506108ae83610b66565b505050505050565b6000546001600160a01b031633146108cd57600080fd5b6001600160a01b0381166108e057600080fd5b600080546040516001600160a01b03808516939216917f8be0079c531659141344cd1fd0a4f28419497f9722a3daafe3b4186f6b6457e091a3600080546001600160a01b0319166001600160a01b0392909216919091179055565b6000808260405160200161094f9190610e66565b6040516020818303038152906040528051906020012060001c905060025481610978919061103f565b9392505050565b60046040518060c00160405280848152602001838152602001600163ffffffff168152602001600354426109b39190610f4e565b63ffffffff1681526000602080830182905260409092018190528354600181018555938152819020825180519394600302909101926109f59284920190610c1c565b5060208201516001828101919091556040830151600290920180546060850151608086015160a09096015163ffffffff1990921663ffffffff9586161767ffffffff00000000191664010000000095909116949094029390931769ffff00000000000000001916600160401b61ffff958616021761ffff60501b1916600160501b949093169390930291909117909155600454600091610a9491610f66565b600081815260056020908152604080832080546001600160a01b03191633908117909155835260069091528120805492935090610ad08361100a565b91905055507fa6d701777246a1c406210d4b4af8683b00ad9a41b469546e5fb3e91c5e65808c818484604051610b0893929190610f25565b60405180910390a1505050565b6008805460009182610b268361100a565b91905055508133604051602001610b3d9190610e49565b6040516020818303038152906040528051906020012060001c610b60919061103f565b92915050565b600354610b739042610f4e565b8160020160046101000a81548163ffffffff021916908363ffffffff16021790555050565b828054610ba490610fad565b90600052602060002090601f016020900481019282610bc65760008555610c0c565b82601f10610bdf5782800160ff19823516178555610c0c565b82800160010185558215610c0c579182015b82811115610c0c578235825591602001919060010190610bf1565b50610c18929150610c90565b5090565b828054610c2890610fad565b90600052602060002090601f016020900481019282610c4a5760008555610c0c565b82601f10610c6357805160ff1916838001178555610c0c565b82800160010185558215610c0c579182015b82811115610c0c578251825591602001919060010190610c75565b5b80821115610c185760008155600101610c91565b600060208284031215610cb6578081fd5b81356001600160a01b0381168114610978578182fd5b60006020808385031215610cde578182fd5b823567ffffffffffffffff80821115610cf5578384fd5b818501915085601f830112610d08578384fd5b813581811115610d1a57610d1a611075565b604051601f8201601f1916810185018381118282101715610d3d57610d3d611075565b6040528181528382018501881015610d53578586fd5b818585018683013790810190930193909352509392505050565b600060208284031215610d7e578081fd5b5035919050565b600080600060408486031215610d99578182fd5b83359250602084013567ffffffffffffffff80821115610db7578384fd5b818601915086601f830112610dca578384fd5b813581811115610dd8578485fd5b876020828501011115610de9578485fd5b6020830194508093505050509250925092565b60008060408385031215610e0e578182fd5b50508035926020909101359150565b60008151808452610e35816020860160208601610f7d565b601f01601f19169290920160200192915050565b60609190911b6bffffffffffffffffffffffff1916815260140190565b60008251610e78818460208701610f7d565b9190910192915050565b6001600160a01b0391909116815260200190565b6020808252825182820181905260009190848201906040850190845b81811015610ece57835183529284019291840191600101610eb2565b50909695505050505050565b600060c08252610eed60c0830189610e1d565b60208301979097525063ffffffff948516604082015292909316606083015261ffff908116608083015290911660a090910152919050565b600084825260606020830152610f3e6060830185610e1d565b9050826040830152949350505050565b60008219821115610f6157610f6161105f565b500190565b600082821015610f7857610f7861105f565b500390565b60005b83811015610f98578181015183820152602001610f80565b83811115610fa7576000848401525b50505050565b600281046001821680610fc157607f821691505b60208210811415610fe257634e487b7160e01b600052602260045260246000fd5b50919050565b600061ffff808316818114156110005761100061105f565b6001019392505050565b600060001982141561101e5761101e61105f565b5060010190565b600063ffffffff808316818114156110005761100061105f565b60008261105a57634e487b7160e01b81526012600452602481fd5b500690565b634e487b7160e01b600052601160045260246000fd5b634e487b7160e01b600052604160045260246000fdfea2646970667358221220d21f21c26dfc9ac852b33b4ef1ef7fe3fc0027a46ad1ba41c4907a603534fd8464736f6c63430008000033",
  "immutableReferences": {},
  "source": "// SPDX-License-Identifier: GPL-3.0\npragma solidity >=0.4.22 <0.9.0;\n\nimport \"./cathelper.sol\";\n\ncontract CatAttack is CatHelper {\n  uint randNonce = 0;\n  uint attackVictoryProbability = 70;\n\n  function triggerCooldown(Cat storage _cat) internal {\n    _cat.readyTime = uint32(block.timestamp + cooldownTime);\n  }\n\n  function randMod(uint _modulus) internal returns(uint) {\n    randNonce++;\n    return uint(keccak256(abi.encodePacked(msg.sender))) % _modulus;\n  }\n\n  function attack(uint _catId, uint _targetId) external onlyOwnerOf(_catId) {\n    Cat storage myCat = cats[_catId];\n    Cat storage enemyCat = cats[_targetId];\n    uint rand = randMod(100);\n    if (rand <= attackVictoryProbability) {\n      myCat.winCount++;\n      myCat.level++;\n      enemyCat.lossCount++;\n    } else {\n      myCat.lossCount++;\n      enemyCat.winCount++;\n      triggerCooldown(myCat);\n    }\n  }\n}\n",
  "sourcePath": "/Users/jihyunkim/Desktop/deploy-solidity/CATNFT/contracts/catattack.sol",
  "compiler": {
    "name": "solc",
    "version": "0.8.0+commit.c7dfd78e.Emscripten.clang"
  },
  "schemaVersion": "3.4.10",
  "updatedAt": "2022-10-25T09:33:12.440Z",
  "devdoc": {
    "kind": "dev",
    "methods": {
      "transferOwnership(address)": {
        "details": "Allows the current owner to transfer control of the contract to a newOwner.",
        "params": {
          "newOwner": "The address to transfer ownership to."
        }
      }
    },
    "version": 1
  },
  "userdoc": {
    "kind": "user",
    "methods": {},
    "version": 1
  }
}