{
  "contractName": "CatFactory",
  "abi": [
    {
      "anonymous": false,
      "inputs": [
        {
          "indexed": false,
          "internalType": "uint256",
          "name": "catId",
          "type": "uint256"
        },
        {
          "indexed": false,
          "internalType": "string",
          "name": "name",
          "type": "string"
        },
        {
          "indexed": false,
          "internalType": "uint256",
          "name": "dna",
          "type": "uint256"
        }
      ],
      "name": "NewCat",
      "type": "event"
    },
    {
      "anonymous": false,
      "inputs": [
        {
          "indexed": true,
          "internalType": "address",
          "name": "previousOwner",
          "type": "address"
        },
        {
          "indexed": true,
          "internalType": "address",
          "name": "newOwner",
          "type": "address"
        }
      ],
      "name": "OwnershipTransferred",
      "type": "event"
    },
    {
      "inputs": [
        {
          "internalType": "uint256",
          "name": "",
          "type": "uint256"
        }
      ],
      "name": "catToOwner",
      "outputs": [
        {
          "internalType": "address",
          "name": "",
          "type": "address"
        }
      ],
      "stateMutability": "view",
      "type": "function"
    },
    {
      "inputs": [
        {
          "internalType": "uint256",
          "name": "",
          "type": "uint256"
        }
      ],
      "name": "cats",
      "outputs": [
        {
          "internalType": "string",
          "name": "name",
          "type": "string"
        },
        {
          "internalType": "uint256",
          "name": "dna",
          "type": "uint256"
        },
        {
          "internalType": "uint32",
          "name": "level",
          "type": "uint32"
        },
        {
          "internalType": "uint32",
          "name": "readyTime",
          "type": "uint32"
        },
        {
          "internalType": "uint16",
          "name": "winCount",
          "type": "uint16"
        },
        {
          "internalType": "uint16",
          "name": "lossCount",
          "type": "uint16"
        }
      ],
      "stateMutability": "view",
      "type": "function"
    },
    {
      "inputs": [],
      "name": "owner",
      "outputs": [
        {
          "internalType": "address",
          "name": "",
          "type": "address"
        }
      ],
      "stateMutability": "view",
      "type": "function"
    },
    {
      "inputs": [
        {
          "internalType": "address",
          "name": "newOwner",
          "type": "address"
        }
      ],
      "name": "transferOwnership",
      "outputs": [],
      "stateMutability": "nonpayable",
      "type": "function"
    },
    {
      "inputs": [
        {
          "internalType": "string",
          "name": "_name",
          "type": "string"
        }
      ],
      "name": "createRandomCat",
      "outputs": [],
      "stateMutability": "nonpayable",
      "type": "function"
    }
  ],
  "bytecode": "0x6080604052601060018190556200001890600a62000095565b600255620151806003553480156200002f57600080fd5b50600080546001600160a01b03191633179055620001a0565b80825b60018086116200005c57506200008c565b8187048211156200007157620000716200018a565b808616156200007f57918102915b9490941c9380026200004b565b94509492505050565b6000620000a66000198484620000ad565b9392505050565b600082620000be57506001620000a6565b81620000cd57506000620000a6565b8160018114620000e65760028114620000f15762000125565b6001915050620000a6565b60ff8411156200010557620001056200018a565b6001841b9150848211156200011e576200011e6200018a565b50620000a6565b5060208310610133831016604e8410600b84101617156200015d575081810a838111156200015757620001576200018a565b620000a6565b6200016c848484600162000048565b8086048211156200018157620001816200018a565b02949350505050565b634e487b7160e01b600052601160045260246000fd5b61081b80620001b06000396000f3fe608060405234801561001057600080fd5b50600436106100575760003560e01c80633aab8dc81461005c578063600ff8eb146100855780638da5cb5b1461009a578063c6df962d146100a2578063f2fde38b146100c7575b600080fd5b61006f61006a3660046105fc565b6100da565b60405161007c919061065c565b60405180910390f35b61009861009336600461055b565b6100f5565b005b61006f610143565b6100b56100b03660046105fc565b610152565b60405161007c96959493929190610670565b6100986100d5366004610534565b61023c565b6005602052600090815260409020546001600160a01b031681565b33600090815260066020526040902054600a1061011157600080fd5b600061011c826102c1565b9050610129606482610799565b61013390826106fc565b905061013f8282610305565b5050565b6000546001600160a01b031681565b6004818154811061016257600080fd5b906000526020600020906003020160009150905080600001805461018590610743565b80601f01602080910402602001604051908101604052809291908181526020018280546101b190610743565b80156101fe5780601f106101d3576101008083540402835291602001916101fe565b820191906000526020600020905b8154815290600101906020018083116101e157829003601f168201915b505050600184015460029094015492939263ffffffff8082169350640100000000820416915061ffff600160401b8204811691600160501b90041686565b6000546001600160a01b0316331461025357600080fd5b6001600160a01b03811661026657600080fd5b600080546040516001600160a01b03808516939216917f8be0079c531659141344cd1fd0a4f28419497f9722a3daafe3b4186f6b6457e091a3600080546001600160a01b0319166001600160a01b0392909216919091179055565b600080826040516020016102d59190610640565b6040516020818303038152906040528051906020012060001c9050600254816102fe9190610799565b9392505050565b60046040518060c00160405280848152602001838152602001600163ffffffff1681526020016003544261033991906106e4565b63ffffffff16815260006020808301829052604090920181905283546001810185559381528190208251805193946003029091019261037b928492019061049b565b5060208201516001828101919091556040830151600290920180546060850151608086015160a09096015163ffffffff1990921663ffffffff9586161767ffffffff00000000191664010000000095909116949094029390931769ffff00000000000000001916600160401b61ffff958616021761ffff60501b1916600160501b94909316939093029190911790915560045460009161041a916106fc565b600081815260056020908152604080832080546001600160a01b031916339081179091558352600690915281208054929350906104568361077e565b91905055507fa6d701777246a1c406210d4b4af8683b00ad9a41b469546e5fb3e91c5e65808c81848460405161048e939291906106bb565b60405180910390a1505050565b8280546104a790610743565b90600052602060002090601f0160209004810192826104c9576000855561050f565b82601f106104e257805160ff191683800117855561050f565b8280016001018555821561050f579182015b8281111561050f5782518255916020019190600101906104f4565b5061051b92915061051f565b5090565b5b8082111561051b5760008155600101610520565b600060208284031215610545578081fd5b81356001600160a01b03811681146102fe578182fd5b6000602080838503121561056d578182fd5b823567ffffffffffffffff80821115610584578384fd5b818501915085601f830112610597578384fd5b8135818111156105a9576105a96107cf565b604051601f8201601f19168101850183811182821017156105cc576105cc6107cf565b60405281815283820185018810156105e2578586fd5b818585018683013790810190930193909352509392505050565b60006020828403121561060d578081fd5b5035919050565b6000815180845261062c816020860160208601610713565b601f01601f19169290920160200192915050565b60008251610652818460208701610713565b9190910192915050565b6001600160a01b0391909116815260200190565b600060c0825261068360c0830189610614565b60208301979097525063ffffffff948516604082015292909316606083015261ffff908116608083015290911660a090910152919050565b6000848252606060208301526106d46060830185610614565b9050826040830152949350505050565b600082198211156106f7576106f76107b9565b500190565b60008282101561070e5761070e6107b9565b500390565b60005b8381101561072e578181015183820152602001610716565b8381111561073d576000848401525b50505050565b60028104600182168061075757607f821691505b6020821081141561077857634e487b7160e01b600052602260045260246000fd5b50919050565b6000600019821415610792576107926107b9565b5060010190565b6000826107b457634e487b7160e01b81526012600452602481fd5b500690565b634e487b7160e01b600052601160045260246000fd5b634e487b7160e01b600052604160045260246000fdfea264697066735822122063eee8a2b1c517d2c971c91617e681d8b846c62ad2594ceda1fab3086e23023f64736f6c63430008000033",
  "immutableReferences": {},
  "source": "// SPDX-License-Identifier: GPL-3.0\npragma solidity >=0.4.22 <0.9.0;\n\nimport \"./ownable.sol\";\nimport \"./safemath.sol\";\n\ncontract CatFactory is Ownable {\n\n  using SafeMath for uint256;\n\n  event NewCat(uint catId, string name, uint dna);\n\n  uint dnaDigits = 16;\n  uint dnaModulus = 10 ** dnaDigits;\n  uint cooldownTime = 1 days;\n\n  struct Cat {\n    string name;\n    uint dna;\n    uint32 level;\n    uint32 readyTime;\n    uint16 winCount;\n    uint16 lossCount;\n  }\n\n  Cat[] public cats;\n\n  mapping (uint => address) public catToOwner;\n  mapping (address => uint) ownerCatCount;\n\n  function _createCat(string memory _name, uint _dna) internal {\n    cats.push(Cat(_name, _dna, 1, uint32(block.timestamp + cooldownTime), 0, 0));\n    uint id = cats.length - 1;\n    catToOwner[id] = msg.sender;\n    ownerCatCount[msg.sender]++;\n    emit NewCat(id, _name, _dna);\n  }\n\n  function _generateRandomDna(string memory _str) private view returns (uint) {\n    uint rand = uint(keccak256(abi.encodePacked(_str)));\n    return rand % dnaModulus;\n  }\n\n  function createRandomCat(string memory _name) public {\n    require(ownerCatCount[msg.sender] > 10);\n    uint randDna = _generateRandomDna(_name);\n    randDna = randDna - randDna % 100;\n    _createCat(_name, randDna);\n  }\n\n}\n",
  "sourcePath": "/Users/jihyunkim/Desktop/deploy-solidity/CATNFT/contracts/catfactory.sol",
  "compiler": {
    "name": "solc",
    "version": "0.8.0+commit.c7dfd78e.Emscripten.clang"
  },
  "schemaVersion": "3.4.10",
  "updatedAt": "2022-10-25T09:33:12.442Z",
  "devdoc": {
    "kind": "dev",
    "methods": {
      "transferOwnership(address)": {
        "details": "Allows the current owner to transfer control of the contract to a newOwner.",
        "params": {
          "newOwner": "The address to transfer ownership to."
        }
      }
    },
    "version": 1
  },
  "userdoc": {
    "kind": "user",
    "methods": {},
    "version": 1
  }
}