{
  "contractName": "CatHelper",
  "abi": [
    {
      "anonymous": false,
      "inputs": [
        {
          "indexed": false,
          "internalType": "uint256",
          "name": "catId",
          "type": "uint256"
        },
        {
          "indexed": false,
          "internalType": "string",
          "name": "name",
          "type": "string"
        },
        {
          "indexed": false,
          "internalType": "uint256",
          "name": "dna",
          "type": "uint256"
        }
      ],
      "name": "NewCat",
      "type": "event"
    },
    {
      "anonymous": false,
      "inputs": [
        {
          "indexed": true,
          "internalType": "address",
          "name": "previousOwner",
          "type": "address"
        },
        {
          "indexed": true,
          "internalType": "address",
          "name": "newOwner",
          "type": "address"
        }
      ],
      "name": "OwnershipTransferred",
      "type": "event"
    },
    {
      "inputs": [
        {
          "internalType": "uint256",
          "name": "",
          "type": "uint256"
        }
      ],
      "name": "catToOwner",
      "outputs": [
        {
          "internalType": "address",
          "name": "",
          "type": "address"
        }
      ],
      "stateMutability": "view",
      "type": "function"
    },
    {
      "inputs": [
        {
          "internalType": "uint256",
          "name": "",
          "type": "uint256"
        }
      ],
      "name": "cats",
      "outputs": [
        {
          "internalType": "string",
          "name": "name",
          "type": "string"
        },
        {
          "internalType": "uint256",
          "name": "dna",
          "type": "uint256"
        },
        {
          "internalType": "uint32",
          "name": "level",
          "type": "uint32"
        },
        {
          "internalType": "uint32",
          "name": "readyTime",
          "type": "uint32"
        },
        {
          "internalType": "uint16",
          "name": "winCount",
          "type": "uint16"
        },
        {
          "internalType": "uint16",
          "name": "lossCount",
          "type": "uint16"
        }
      ],
      "stateMutability": "view",
      "type": "function"
    },
    {
      "inputs": [
        {
          "internalType": "string",
          "name": "_name",
          "type": "string"
        }
      ],
      "name": "createRandomCat",
      "outputs": [],
      "stateMutability": "nonpayable",
      "type": "function"
    },
    {
      "inputs": [],
      "name": "owner",
      "outputs": [
        {
          "internalType": "address",
          "name": "",
          "type": "address"
        }
      ],
      "stateMutability": "view",
      "type": "function"
    },
    {
      "inputs": [
        {
          "internalType": "address",
          "name": "newOwner",
          "type": "address"
        }
      ],
      "name": "transferOwnership",
      "outputs": [],
      "stateMutability": "nonpayable",
      "type": "function"
    },
    {
      "inputs": [],
      "name": "withdraw",
      "outputs": [],
      "stateMutability": "nonpayable",
      "type": "function"
    },
    {
      "inputs": [
        {
          "internalType": "uint256",
          "name": "_fee",
          "type": "uint256"
        }
      ],
      "name": "setLevelUpFee",
      "outputs": [],
      "stateMutability": "nonpayable",
      "type": "function"
    },
    {
      "inputs": [
        {
          "internalType": "uint256",
          "name": "_catId",
          "type": "uint256"
        }
      ],
      "name": "levelUp",
      "outputs": [],
      "stateMutability": "payable",
      "type": "function"
    },
    {
      "inputs": [
        {
          "internalType": "uint256",
          "name": "_catId",
          "type": "uint256"
        },
        {
          "internalType": "string",
          "name": "_newName",
          "type": "string"
        }
      ],
      "name": "changeName",
      "outputs": [],
      "stateMutability": "nonpayable",
      "type": "function"
    },
    {
      "inputs": [
        {
          "internalType": "uint256",
          "name": "_catId",
          "type": "uint256"
        },
        {
          "internalType": "uint256",
          "name": "_newDna",
          "type": "uint256"
        }
      ],
      "name": "changeDna",
      "outputs": [],
      "stateMutability": "nonpayable",
      "type": "function"
    },
    {
      "inputs": [
        {
          "internalType": "address",
          "name": "_owner",
          "type": "address"
        }
      ],
      "name": "getCatsByOwner",
      "outputs": [
        {
          "internalType": "uint256[]",
          "name": "",
          "type": "uint256[]"
        }
      ],
      "stateMutability": "view",
      "type": "function"
    }
  ],
  "bytecode": "0x6080604052601060018190556200001890600a620000a0565b6002556201518060035566038d7ea4c680006007553480156200003a57600080fd5b50600080546001600160a01b03191633179055620001ab565b80825b600180861162000067575062000097565b8187048211156200007c576200007c62000195565b808616156200008a57918102915b9490941c93800262000056565b94509492505050565b6000620000b16000198484620000b8565b9392505050565b600082620000c957506001620000b1565b81620000d857506000620000b1565b8160018114620000f15760028114620000fc5762000130565b6001915050620000b1565b60ff84111562000110576200011062000195565b6001841b91508482111562000129576200012962000195565b50620000b1565b5060208310610133831016604e8410600b841016171562000168575081810a8381111562000162576200016262000195565b620000b1565b62000177848484600162000053565b8086048211156200018c576200018c62000195565b02949350505050565b634e487b7160e01b600052601160045260246000fd5b610e0580620001bb6000396000f3fe60806040526004361061009c5760003560e01c80638da5cb5b116100645780638da5cb5b14610141578063c1bab34214610156578063c39cbef114610183578063c6df962d146101a3578063ccf670f8146101d5578063f2fde38b146101f55761009c565b80630ce90ec2146100a15780633aab8dc8146100b65780633ccfd60b146100ec5780635faf288014610101578063600ff8eb14610121575b600080fd5b6100b46100af366004610ae6565b610215565b005b3480156100c257600080fd5b506100d66100d1366004610ae6565b61028a565b6040516100e39190610bde565b60405180910390f35b3480156100f857600080fd5b506100b46102a5565b34801561010d57600080fd5b506100b461011c366004610b75565b6102f9565b34801561012d57600080fd5b506100b461013c366004610a45565b6103a6565b34801561014d57600080fd5b506100d66103f4565b34801561016257600080fd5b50610176610171366004610a1e565b610403565b6040516100e39190610bf2565b34801561018f57600080fd5b506100b461019e366004610afe565b6104f7565b3480156101af57600080fd5b506101c36101be366004610ae6565b6105ac565b6040516100e396959493929190610c36565b3480156101e157600080fd5b506100b46101f0366004610ae6565b610696565b34801561020157600080fd5b506100b4610210366004610a1e565b6106b2565b600754341461022357600080fd5b6004818154811061024457634e487b7160e01b600052603260045260246000fd5b600091825260208220600260039092020101805463ffffffff169161026883610d5f565b91906101000a81548163ffffffff021916908363ffffffff1602179055505050565b6005602052600090815260409020546001600160a01b031681565b6000546001600160a01b031633146102bc57600080fd5b600080546040516001600160a01b03909116914780156108fc02929091818181858888f193505050501580156102f6573d6000803e3d6000fd5b50565b601482816004828154811061031e57634e487b7160e01b600052603260045260246000fd5b600091825260209091206002600390920201015463ffffffff16101561034357600080fd5b60008481526005602052604090205484906001600160a01b0316331461036857600080fd5b836004868154811061038a57634e487b7160e01b600052603260045260246000fd5b9060005260206000209060030201600101819055505050505050565b33600090815260066020526040902054600a106103c257600080fd5b60006103cd82610737565b90506103da606482610d83565b6103e49082610cc2565b90506103f0828261077b565b5050565b6000546001600160a01b031681565b6001600160a01b0381166000908152600660205260408120546060919067ffffffffffffffff81111561044657634e487b7160e01b600052604160045260246000fd5b60405190808252806020026020018201604052801561046f578160200160208202803683370190505b5090506000805b6004548110156104ee576000818152600560205260409020546001600160a01b03868116911614156104dc57808383815181106104c357634e487b7160e01b600052603260045260246000fd5b6020908102919091010152816104d881610d44565b9250505b806104e681610d44565b915050610476565b50909392505050565b600283816004828154811061051c57634e487b7160e01b600052603260045260246000fd5b600091825260209091206002600390920201015463ffffffff16101561054157600080fd5b60008581526005602052604090205485906001600160a01b0316331461056657600080fd5b84846004888154811061058957634e487b7160e01b600052603260045260246000fd5b600091825260209091206105a39360039092020191610911565b50505050505050565b600481815481106105bc57600080fd5b90600052602060002090600302016000915090508060000180546105df90610d09565b80601f016020809104026020016040519081016040528092919081815260200182805461060b90610d09565b80156106585780601f1061062d57610100808354040283529160200191610658565b820191906000526020600020905b81548152906001019060200180831161063b57829003601f168201915b505050600184015460029094015492939263ffffffff8082169350640100000000820416915061ffff600160401b8204811691600160501b90041686565b6000546001600160a01b031633146106ad57600080fd5b600755565b6000546001600160a01b031633146106c957600080fd5b6001600160a01b0381166106dc57600080fd5b600080546040516001600160a01b03808516939216917f8be0079c531659141344cd1fd0a4f28419497f9722a3daafe3b4186f6b6457e091a3600080546001600160a01b0319166001600160a01b0392909216919091179055565b6000808260405160200161074b9190610bc2565b6040516020818303038152906040528051906020012060001c9050600254816107749190610d83565b9392505050565b60046040518060c00160405280848152602001838152602001600163ffffffff168152602001600354426107af9190610caa565b63ffffffff1681526000602080830182905260409092018190528354600181018555938152819020825180519394600302909101926107f19284920190610995565b5060208201516001828101919091556040830151600290920180546060850151608086015160a09096015163ffffffff1990921663ffffffff9586161767ffffffff00000000191664010000000095909116949094029390931769ffff00000000000000001916600160401b61ffff958616021761ffff60501b1916600160501b94909316939093029190911790915560045460009161089091610cc2565b600081815260056020908152604080832080546001600160a01b031916339081179091558352600690915281208054929350906108cc83610d44565b91905055507fa6d701777246a1c406210d4b4af8683b00ad9a41b469546e5fb3e91c5e65808c81848460405161090493929190610c81565b60405180910390a1505050565b82805461091d90610d09565b90600052602060002090601f01602090048101928261093f5760008555610985565b82601f106109585782800160ff19823516178555610985565b82800160010185558215610985579182015b8281111561098557823582559160200191906001019061096a565b50610991929150610a09565b5090565b8280546109a190610d09565b90600052602060002090601f0160209004810192826109c35760008555610985565b82601f106109dc57805160ff1916838001178555610985565b82800160010185558215610985579182015b828111156109855782518255916020019190600101906109ee565b5b808211156109915760008155600101610a0a565b600060208284031215610a2f578081fd5b81356001600160a01b0381168114610774578182fd5b60006020808385031215610a57578182fd5b823567ffffffffffffffff80821115610a6e578384fd5b818501915085601f830112610a81578384fd5b813581811115610a9357610a93610db9565b604051601f8201601f1916810185018381118282101715610ab657610ab6610db9565b6040528181528382018501881015610acc578586fd5b818585018683013790810190930193909352509392505050565b600060208284031215610af7578081fd5b5035919050565b600080600060408486031215610b12578182fd5b83359250602084013567ffffffffffffffff80821115610b30578384fd5b818601915086601f830112610b43578384fd5b813581811115610b51578485fd5b876020828501011115610b62578485fd5b6020830194508093505050509250925092565b60008060408385031215610b87578182fd5b50508035926020909101359150565b60008151808452610bae816020860160208601610cd9565b601f01601f19169290920160200192915050565b60008251610bd4818460208701610cd9565b9190910192915050565b6001600160a01b0391909116815260200190565b6020808252825182820181905260009190848201906040850190845b81811015610c2a57835183529284019291840191600101610c0e565b50909695505050505050565b600060c08252610c4960c0830189610b96565b60208301979097525063ffffffff948516604082015292909316606083015261ffff908116608083015290911660a090910152919050565b600084825260606020830152610c9a6060830185610b96565b9050826040830152949350505050565b60008219821115610cbd57610cbd610da3565b500190565b600082821015610cd457610cd4610da3565b500390565b60005b83811015610cf4578181015183820152602001610cdc565b83811115610d03576000848401525b50505050565b600281046001821680610d1d57607f821691505b60208210811415610d3e57634e487b7160e01b600052602260045260246000fd5b50919050565b6000600019821415610d5857610d58610da3565b5060010190565b600063ffffffff80831681811415610d7957610d79610da3565b6001019392505050565b600082610d9e57634e487b7160e01b81526012600452602481fd5b500690565b634e487b7160e01b600052601160045260246000fd5b634e487b7160e01b600052604160045260246000fdfea2646970667358221220953e3ec2b446ff6d457fc825ee41663aadb8318fb3979263795ffd8441a8e3eb64736f6c63430008000033",
  "immutableReferences": {},
  "source": "// SPDX-License-Identifier: GPL-3.0\npragma solidity >=0.4.22 <0.9.0;\n\nimport \"./catfactory.sol\";\n\ncontract CatHelper is CatFactory{\n\n  uint levelUpFee = 0.001 ether;\n\n  modifier onlyOwnerOf(uint _catId) {\n    require(msg.sender == catToOwner[_catId]);\n    _;\n  }\n\n  modifier aboveLevel(uint _level, uint _catId) {\n    require(cats[_catId].level >= _level);\n    _;\n  }\n\n  function withdraw() external onlyOwner {\n    // address payable _owner = address(uint160(owner));\n    payable(owner).transfer(address(this).balance);\n  }\n\n  function setLevelUpFee(uint _fee) external onlyOwner {\n    levelUpFee = _fee;\n  }\n\n  function levelUp(uint _catId) external payable {\n    require(msg.value == levelUpFee);\n    cats[_catId].level++;\n  }\n\n  function changeName(uint _catId, string calldata _newName) external aboveLevel(2, _catId) onlyOwnerOf(_catId) {\n    cats[_catId].name = _newName;\n  }\n\n  function changeDna(uint _catId, uint _newDna) external aboveLevel(20, _catId) onlyOwnerOf(_catId) {\n    cats[_catId].dna = _newDna;\n  }\n\n  function getCatsByOwner(address _owner) external view returns(uint[] memory) {\n    uint[] memory result = new uint[](ownerCatCount[_owner]);\n    uint counter = 0;\n    for (uint i = 0; i < cats.length; i++) {\n      if (catToOwner[i] == _owner) {\n        result[counter] = i;\n        counter++;\n      }\n    }\n    return result;\n  }\n\n}\n",
  "sourcePath": "/Users/jihyunkim/Desktop/deploy-solidity/CATNFT/contracts/cathelper.sol",
  "compiler": {
    "name": "solc",
    "version": "0.8.0+commit.c7dfd78e.Emscripten.clang"
  },
  "schemaVersion": "3.4.10",
  "updatedAt": "2022-10-25T09:33:12.443Z",
  "devdoc": {
    "kind": "dev",
    "methods": {
      "transferOwnership(address)": {
        "details": "Allows the current owner to transfer control of the contract to a newOwner.",
        "params": {
          "newOwner": "The address to transfer ownership to."
        }
      }
    },
    "version": 1
  },
  "userdoc": {
    "kind": "user",
    "methods": {},
    "version": 1
  }
}