{
  "contractName": "CryptoCats",
  "abi": [
    {
      "anonymous": false,
      "inputs": [
        {
          "indexed": true,
          "internalType": "address",
          "name": "_owner",
          "type": "address"
        },
        {
          "indexed": true,
          "internalType": "address",
          "name": "_approved",
          "type": "address"
        },
        {
          "indexed": false,
          "internalType": "uint256",
          "name": "_tokenId",
          "type": "uint256"
        }
      ],
      "name": "Approval",
      "type": "event"
    },
    {
      "anonymous": false,
      "inputs": [
        {
          "indexed": false,
          "internalType": "uint256",
          "name": "catId",
          "type": "uint256"
        },
        {
          "indexed": false,
          "internalType": "string",
          "name": "name",
          "type": "string"
        },
        {
          "indexed": false,
          "internalType": "uint256",
          "name": "dna",
          "type": "uint256"
        }
      ],
      "name": "NewCat",
      "type": "event"
    },
    {
      "anonymous": false,
      "inputs": [
        {
          "indexed": true,
          "internalType": "address",
          "name": "previousOwner",
          "type": "address"
        },
        {
          "indexed": true,
          "internalType": "address",
          "name": "newOwner",
          "type": "address"
        }
      ],
      "name": "OwnershipTransferred",
      "type": "event"
    },
    {
      "anonymous": false,
      "inputs": [
        {
          "indexed": true,
          "internalType": "address",
          "name": "_from",
          "type": "address"
        },
        {
          "indexed": true,
          "internalType": "address",
          "name": "_to",
          "type": "address"
        },
        {
          "indexed": false,
          "internalType": "uint256",
          "name": "_tokenId",
          "type": "uint256"
        }
      ],
      "name": "Transfer",
      "type": "event"
    },
    {
      "inputs": [
        {
          "internalType": "address",
          "name": "_to",
          "type": "address"
        },
        {
          "internalType": "uint256",
          "name": "_tokenId",
          "type": "uint256"
        }
      ],
      "name": "approve",
      "outputs": [],
      "stateMutability": "nonpayable",
      "type": "function"
    },
    {
      "inputs": [
        {
          "internalType": "uint256",
          "name": "_catId",
          "type": "uint256"
        },
        {
          "internalType": "uint256",
          "name": "_targetId",
          "type": "uint256"
        }
      ],
      "name": "attack",
      "outputs": [],
      "stateMutability": "nonpayable",
      "type": "function"
    },
    {
      "inputs": [
        {
          "internalType": "address",
          "name": "_owner",
          "type": "address"
        }
      ],
      "name": "balanceOf",
      "outputs": [
        {
          "internalType": "uint256",
          "name": "_balance",
          "type": "uint256"
        }
      ],
      "stateMutability": "view",
      "type": "function",
      "constant": true
    },
    {
      "inputs": [
        {
          "internalType": "uint256",
          "name": "",
          "type": "uint256"
        }
      ],
      "name": "catToOwner",
      "outputs": [
        {
          "internalType": "address",
          "name": "",
          "type": "address"
        }
      ],
      "stateMutability": "view",
      "type": "function",
      "constant": true
    },
    {
      "inputs": [
        {
          "internalType": "uint256",
          "name": "",
          "type": "uint256"
        }
      ],
      "name": "cats",
      "outputs": [
        {
          "internalType": "string",
          "name": "name",
          "type": "string"
        },
        {
          "internalType": "uint256",
          "name": "dna",
          "type": "uint256"
        },
        {
          "internalType": "uint32",
          "name": "level",
          "type": "uint32"
        },
        {
          "internalType": "uint32",
          "name": "readyTime",
          "type": "uint32"
        },
        {
          "internalType": "uint16",
          "name": "winCount",
          "type": "uint16"
        },
        {
          "internalType": "uint16",
          "name": "lossCount",
          "type": "uint16"
        }
      ],
      "stateMutability": "view",
      "type": "function",
      "constant": true
    },
    {
      "inputs": [
        {
          "internalType": "uint256",
          "name": "_catId",
          "type": "uint256"
        },
        {
          "internalType": "uint256",
          "name": "_newDna",
          "type": "uint256"
        }
      ],
      "name": "changeDna",
      "outputs": [],
      "stateMutability": "nonpayable",
      "type": "function"
    },
    {
      "inputs": [
        {
          "internalType": "uint256",
          "name": "_catId",
          "type": "uint256"
        },
        {
          "internalType": "string",
          "name": "_newName",
          "type": "string"
        }
      ],
      "name": "changeName",
      "outputs": [],
      "stateMutability": "nonpayable",
      "type": "function"
    },
    {
      "inputs": [
        {
          "internalType": "string",
          "name": "_name",
          "type": "string"
        }
      ],
      "name": "createRandomCat",
      "outputs": [],
      "stateMutability": "nonpayable",
      "type": "function"
    },
    {
      "inputs": [
        {
          "internalType": "address",
          "name": "_owner",
          "type": "address"
        }
      ],
      "name": "getCatsByOwner",
      "outputs": [
        {
          "internalType": "uint256[]",
          "name": "",
          "type": "uint256[]"
        }
      ],
      "stateMutability": "view",
      "type": "function",
      "constant": true
    },
    {
      "inputs": [
        {
          "internalType": "uint256",
          "name": "_catId",
          "type": "uint256"
        }
      ],
      "name": "levelUp",
      "outputs": [],
      "stateMutability": "payable",
      "type": "function",
      "payable": true
    },
    {
      "inputs": [],
      "name": "owner",
      "outputs": [
        {
          "internalType": "address",
          "name": "",
          "type": "address"
        }
      ],
      "stateMutability": "view",
      "type": "function",
      "constant": true
    },
    {
      "inputs": [
        {
          "internalType": "uint256",
          "name": "_tokenId",
          "type": "uint256"
        }
      ],
      "name": "ownerOf",
      "outputs": [
        {
          "internalType": "address",
          "name": "_owner",
          "type": "address"
        }
      ],
      "stateMutability": "view",
      "type": "function",
      "constant": true
    },
    {
      "inputs": [
        {
          "internalType": "uint256",
          "name": "_fee",
          "type": "uint256"
        }
      ],
      "name": "setLevelUpFee",
      "outputs": [],
      "stateMutability": "nonpayable",
      "type": "function"
    },
    {
      "inputs": [
        {
          "internalType": "uint256",
          "name": "_tokenId",
          "type": "uint256"
        }
      ],
      "name": "takeOwnership",
      "outputs": [],
      "stateMutability": "nonpayable",
      "type": "function"
    },
    {
      "inputs": [
        {
          "internalType": "address",
          "name": "_to",
          "type": "address"
        },
        {
          "internalType": "uint256",
          "name": "_tokenId",
          "type": "uint256"
        }
      ],
      "name": "transfer",
      "outputs": [],
      "stateMutability": "nonpayable",
      "type": "function"
    },
    {
      "inputs": [
        {
          "internalType": "address",
          "name": "newOwner",
          "type": "address"
        }
      ],
      "name": "transferOwnership",
      "outputs": [],
      "stateMutability": "nonpayable",
      "type": "function"
    },
    {
      "inputs": [],
      "name": "withdraw",
      "outputs": [],
      "stateMutability": "nonpayable",
      "type": "function"
    }
  ],
  "bytecode": "0x6080604052601060018190556200001890600a620000aa565b6002556201518060035566038d7ea4c68000600755600060085560466009553480156200004457600080fd5b50600080546001600160a01b03191633179055620001b5565b80825b6001808611620000715750620000a1565b8187048211156200008657620000866200019f565b808616156200009457918102915b9490941c93800262000060565b94509492505050565b6000620000bb6000198484620000c2565b9392505050565b600082620000d357506001620000bb565b81620000e257506000620000bb565b8160018114620000fb576002811462000106576200013a565b6001915050620000bb565b60ff8411156200011a576200011a6200019f565b6001841b9150848211156200013357620001336200019f565b50620000bb565b5060208310610133831016604e8410600b841016171562000172575081810a838111156200016c576200016c6200019f565b620000bb565b6200018184848460016200005d565b8086048211156200019657620001966200019f565b02949350505050565b634e487b7160e01b600052601160045260246000fd5b61145180620001c56000396000f3fe6080604052600436106100fe5760003560e01c80638da5cb5b11610095578063c39cbef111610064578063c39cbef114610292578063c6df962d146102b2578063ccf670f8146102e4578063e1fa763814610304578063f2fde38b14610324576100fe565b80638da5cb5b14610210578063a9059cbb14610225578063b2e6ceeb14610245578063c1bab34214610265576100fe565b80635faf2880116100d15780635faf288014610183578063600ff8eb146101a35780636352211e146101c357806370a08231146101e3576100fe565b8063095ea7b3146101035780630ce90ec2146101255780633aab8dc8146101385780633ccfd60b1461016e575b600080fd5b34801561010f57600080fd5b5061012361011e36600461102a565b610344565b005b6101236101333660046110f4565b6103d3565b34801561014457600080fd5b506101586101533660046110f4565b610448565b6040516101659190611209565b60405180910390f35b34801561017a57600080fd5b50610123610463565b34801561018f57600080fd5b5061012361019e366004611183565b6104b7565b3480156101af57600080fd5b506101236101be366004611053565b610564565b3480156101cf57600080fd5b506101586101de3660046110f4565b6105b2565b3480156101ef57600080fd5b506102036101fe366004611010565b6105d0565b60405161016591906112ac565b34801561021c57600080fd5b506101586105eb565b34801561023157600080fd5b5061012361024036600461102a565b6105fa565b34801561025157600080fd5b506101236102603660046110f4565b61062f565b34801561027157600080fd5b50610285610280366004611010565b61066a565b604051610165919061121d565b34801561029e57600080fd5b506101236102ad36600461110c565b61075e565b3480156102be57600080fd5b506102d26102cd3660046110f4565b610813565b60405161016596959493929190611261565b3480156102f057600080fd5b506101236102ff3660046110f4565b6108fd565b34801561031057600080fd5b5061012361031f366004611183565b610919565b34801561033057600080fd5b5061012361033f366004611010565b610af2565b60008181526005602052604090205481906001600160a01b0316331461036957600080fd5b6000828152600a60205260409081902080546001600160a01b0319166001600160a01b038616908117909155905133907f8c5be1e5ebec7d5bd14f71427d1e84f3dd0314c0f7b2291e5b200ac8c7c3b925906103c69086906112ac565b60405180910390a3505050565b60075434146103e157600080fd5b6004818154811061040257634e487b7160e01b600052603260045260246000fd5b600091825260208220600260039092020101805463ffffffff1691610426836113b5565b91906101000a81548163ffffffff021916908363ffffffff1602179055505050565b6005602052600090815260409020546001600160a01b031681565b6000546001600160a01b0316331461047a57600080fd5b600080546040516001600160a01b03909116914780156108fc02929091818181858888f193505050501580156104b4573d6000803e3d6000fd5b50565b60148281600482815481106104dc57634e487b7160e01b600052603260045260246000fd5b600091825260209091206002600390920201015463ffffffff16101561050157600080fd5b60008481526005602052604090205484906001600160a01b0316331461052657600080fd5b836004868154811061054857634e487b7160e01b600052603260045260246000fd5b9060005260206000209060030201600101819055505050505050565b33600090815260066020526040902054600a1061058057600080fd5b600061058b82610b77565b90506105986064826113cf565b6105a290826112f6565b90506105ae8282610bbb565b5050565b6000818152600560205260409020546001600160a01b03165b919050565b6001600160a01b031660009081526006602052604090205490565b6000546001600160a01b031681565b60008181526005602052604090205481906001600160a01b0316331461061f57600080fd5b61062a338484610d51565b505050565b6000818152600a60205260409020546001600160a01b0316331461065257600080fd5b600061065d826105b2565b90506105ae813384610d51565b6001600160a01b0381166000908152600660205260408120546060919067ffffffffffffffff8111156106ad57634e487b7160e01b600052604160045260246000fd5b6040519080825280602002602001820160405280156106d6578160200160208202803683370190505b5090506000805b600454811015610755576000818152600560205260409020546001600160a01b0386811691161415610743578083838151811061072a57634e487b7160e01b600052603260045260246000fd5b60209081029190910101528161073f8161139a565b9250505b8061074d8161139a565b9150506106dd565b50909392505050565b600283816004828154811061078357634e487b7160e01b600052603260045260246000fd5b600091825260209091206002600390920201015463ffffffff1610156107a857600080fd5b60008581526005602052604090205485906001600160a01b031633146107cd57600080fd5b8484600488815481106107f057634e487b7160e01b600052603260045260246000fd5b6000918252602090912061080a9360039092020191610eec565b50505050505050565b6004818154811061082357600080fd5b90600052602060002090600302016000915090508060000180546108469061133d565b80601f01602080910402602001604051908101604052809291908181526020018280546108729061133d565b80156108bf5780601f10610894576101008083540402835291602001916108bf565b820191906000526020600020905b8154815290600101906020018083116108a257829003601f168201915b505050600184015460029094015492939263ffffffff8082169350640100000000820416915061ffff600160401b8204811691600160501b90041686565b6000546001600160a01b0316331461091457600080fd5b600755565b60008281526005602052604090205482906001600160a01b0316331461093e57600080fd5b60006004848154811061096157634e487b7160e01b600052603260045260246000fd5b9060005260206000209060030201905060006004848154811061099457634e487b7160e01b600052603260045260246000fd5b9060005260206000209060030201905060006109b06064610e12565b90506009548111610a6c57600283018054600160401b900461ffff169060086109d883611378565b825461ffff9182166101009390930a92830291909202199091161790555060028301805463ffffffff16906000610a0e836113b5565b825463ffffffff9182166101009390930a92830291909202199091161790555060028201805461ffff600160501b9091041690600a610a4c83611378565b91906101000a81548161ffff021916908361ffff16021790555050610aea565b600283018054600160501b900461ffff1690600a610a8983611378565b91906101000a81548161ffff021916908361ffff1602179055505081600201600881819054906101000a900461ffff1680929190610ac690611378565b91906101000a81548161ffff021916908361ffff16021790555050610aea83610e63565b505050505050565b6000546001600160a01b03163314610b0957600080fd5b6001600160a01b038116610b1c57600080fd5b600080546040516001600160a01b03808516939216917f8be0079c531659141344cd1fd0a4f28419497f9722a3daafe3b4186f6b6457e091a3600080546001600160a01b0319166001600160a01b0392909216919091179055565b60008082604051602001610b8b91906111ed565b6040516020818303038152906040528051906020012060001c905060025481610bb491906113cf565b9392505050565b60046040518060c00160405280848152602001838152602001600163ffffffff16815260200160035442610bef91906112de565b63ffffffff168152600060208083018290526040909201819052835460018101855593815281902082518051939460030290910192610c319284920190610f70565b5060208201516001828101919091556040830151600290920180546060850151608086015160a09096015163ffffffff1990921663ffffffff9586161767ffffffff00000000191664010000000095909116949094029390931769ffff00000000000000001916600160401b61ffff958616021761ffff60501b1916600160501b949093169390930291909117909155600454600091610cd0916112f6565b600081815260056020908152604080832080546001600160a01b03191633908117909155835260069091528120805492935090610d0c8361139a565b91905055507fa6d701777246a1c406210d4b4af8683b00ad9a41b469546e5fb3e91c5e65808c818484604051610d44939291906112b5565b60405180910390a1505050565b6001600160a01b038216600090815260066020526040902054610d75906001610e95565b6001600160a01b038316600090815260066020526040808220929092553381522054610da2906001610ec2565b336000908152600660209081526040808320939093558382526005905281902080546001600160a01b0319166001600160a01b038581169182179092559151908516907fddf252ad1be2c89b69c2b068fc378daa952ba7f163c4a11628f55a4df523b3ef906103c69085906112ac565b6008805460009182610e238361139a565b91905055508133604051602001610e3a91906111d0565b6040516020818303038152906040528051906020012060001c610e5d91906113cf565b92915050565b600354610e7090426112de565b8160020160046101000a81548163ffffffff021916908363ffffffff16021790555050565b600080610ea283856112de565b905083811015610bb457634e487b7160e01b600052600160045260246000fd5b600082821115610ee257634e487b7160e01b600052600160045260246000fd5b610bb482846112f6565b828054610ef89061133d565b90600052602060002090601f016020900481019282610f1a5760008555610f60565b82601f10610f335782800160ff19823516178555610f60565b82800160010185558215610f60579182015b82811115610f60578235825591602001919060010190610f45565b50610f6c929150610fe4565b5090565b828054610f7c9061133d565b90600052602060002090601f016020900481019282610f9e5760008555610f60565b82601f10610fb757805160ff1916838001178555610f60565b82800160010185558215610f60579182015b82811115610f60578251825591602001919060010190610fc9565b5b80821115610f6c5760008155600101610fe5565b80356001600160a01b03811681146105cb57600080fd5b600060208284031215611021578081fd5b610bb482610ff9565b6000806040838503121561103c578081fd5b61104583610ff9565b946020939093013593505050565b60006020808385031215611065578182fd5b823567ffffffffffffffff8082111561107c578384fd5b818501915085601f83011261108f578384fd5b8135818111156110a1576110a1611405565b604051601f8201601f19168101850183811182821017156110c4576110c4611405565b60405281815283820185018810156110da578586fd5b818585018683013790810190930193909352509392505050565b600060208284031215611105578081fd5b5035919050565b600080600060408486031215611120578081fd5b83359250602084013567ffffffffffffffff8082111561113e578283fd5b818601915086601f830112611151578283fd5b81358181111561115f578384fd5b876020828501011115611170578384fd5b6020830194508093505050509250925092565b60008060408385031215611195578182fd5b50508035926020909101359150565b600081518084526111bc81602086016020860161130d565b601f01601f19169290920160200192915050565b60609190911b6bffffffffffffffffffffffff1916815260140190565b600082516111ff81846020870161130d565b9190910192915050565b6001600160a01b0391909116815260200190565b6020808252825182820181905260009190848201906040850190845b8181101561125557835183529284019291840191600101611239565b50909695505050505050565b600060c0825261127460c08301896111a4565b60208301979097525063ffffffff948516604082015292909316606083015261ffff908116608083015290911660a090910152919050565b90815260200190565b6000848252606060208301526112ce60608301856111a4565b9050826040830152949350505050565b600082198211156112f1576112f16113ef565b500190565b600082821015611308576113086113ef565b500390565b60005b83811015611328578181015183820152602001611310565b83811115611337576000848401525b50505050565b60028104600182168061135157607f821691505b6020821081141561137257634e487b7160e01b600052602260045260246000fd5b50919050565b600061ffff80831681811415611390576113906113ef565b6001019392505050565b60006000198214156113ae576113ae6113ef565b5060010190565b600063ffffffff80831681811415611390576113906113ef565b6000826113ea57634e487b7160e01b81526012600452602481fd5b500690565b634e487b7160e01b600052601160045260246000fd5b634e487b7160e01b600052604160045260246000fdfea26469706673582212206ccc58cb557739d9be6949d12bba8217e47d1fec30980f10fe11fb3d9f7b8e2864736f6c63430008000033",
  "immutableReferences": {},
  "source": "// SPDX-License-Identifier: GPL-3.0\npragma solidity >=0.4.22 <0.9.0;\n\nimport \"./catownership.sol\";\n\ncontract CryptoCats is CatOwnership\n    {\n\n    }",
  "sourcePath": "/Users/jihyunkim/Desktop/deploy-solidity/CATNFT/contracts/CryptoCats.sol",
  "compiler": {
    "name": "solc",
    "version": "0.8.0+commit.c7dfd78e.Emscripten.clang"
  },
  "schemaVersion": "3.4.10",
  "updatedAt": "2022-10-26T04:36:56.870Z",
  "networkType": "ethereum",
  "devdoc": {
    "kind": "dev",
    "methods": {
      "transferOwnership(address)": {
        "details": "Allows the current owner to transfer control of the contract to a newOwner.",
        "params": {
          "newOwner": "The address to transfer ownership to."
        }
      }
    },
    "version": 1
  },
  "userdoc": {
    "kind": "user",
    "methods": {},
    "version": 1
  }
}